{
  "_format": "hh-sol-artifact-1",
  "contractName": "DoctorRegistration",
  "sourceName": "contracts/DoctorRegistration.sol",
  "abi": [
    {
      "anonymous": false,
      "inputs": [
        {
          "indexed": false,
          "internalType": "string",
          "name": "licenseNumber",
          "type": "string"
        },
        {
          "indexed": false,
          "internalType": "uint256",
          "name": "slotIndex",
          "type": "uint256"
        },
        {
          "indexed": false,
          "internalType": "address",
          "name": "bookedBy",
          "type": "address"
        }
      ],
      "name": "AppointmentBooked",
      "type": "event"
    },
    {
      "anonymous": false,
      "inputs": [
        {
          "indexed": false,
          "internalType": "string",
          "name": "licenseNumber",
          "type": "string"
        },
        {
          "indexed": false,
          "internalType": "string",
          "name": "date",
          "type": "string"
        },
        {
          "indexed": false,
          "internalType": "string",
          "name": "time",
          "type": "string"
        }
      ],
      "name": "AppointmentSlotAdded",
      "type": "event"
    },
    {
      "anonymous": false,
      "inputs": [
        {
          "indexed": false,
          "internalType": "string",
          "name": "licenseNumber",
          "type": "string"
        },
        {
          "indexed": false,
          "internalType": "string",
          "name": "name",
          "type": "string"
        },
        {
          "indexed": false,
          "internalType": "address",
          "name": "walletAddress",
          "type": "address"
        }
      ],
      "name": "DoctorRegistered",
      "type": "event"
    },
    {
      "inputs": [
        {
          "internalType": "string",
          "name": "_licenseNumber",
          "type": "string"
        },
        {
          "internalType": "string",
          "name": "_date",
          "type": "string"
        },
        {
          "internalType": "string",
          "name": "_time",
          "type": "string"
        }
      ],
      "name": "addAppointmentSlot",
      "outputs": [],
      "stateMutability": "nonpayable",
      "type": "function"
    },
    {
      "inputs": [
        {
          "internalType": "string",
          "name": "_licenseNumber",
          "type": "string"
        },
        {
          "internalType": "uint256",
          "name": "slotIndex",
          "type": "uint256"
        }
      ],
      "name": "bookAppointment",
      "outputs": [],
      "stateMutability": "nonpayable",
      "type": "function"
    },
    {
      "inputs": [
        {
          "internalType": "uint256",
          "name": "",
          "type": "uint256"
        }
      ],
      "name": "doctorLicenseNumbers",
      "outputs": [
        {
          "internalType": "string",
          "name": "",
          "type": "string"
        }
      ],
      "stateMutability": "view",
      "type": "function"
    },
    {
      "inputs": [
        {
          "internalType": "string",
          "name": "",
          "type": "string"
        },
        {
          "internalType": "uint256",
          "name": "",
          "type": "uint256"
        }
      ],
      "name": "doctorSlots",
      "outputs": [
        {
          "internalType": "string",
          "name": "date",
          "type": "string"
        },
        {
          "internalType": "string",
          "name": "time",
          "type": "string"
        },
        {
          "internalType": "bool",
          "name": "isBooked",
          "type": "bool"
        },
        {
          "internalType": "address",
          "name": "bookedBy",
          "type": "address"
        }
      ],
      "stateMutability": "view",
      "type": "function"
    },
    {
      "inputs": [
        {
          "internalType": "string",
          "name": "",
          "type": "string"
        }
      ],
      "name": "doctors",
      "outputs": [
        {
          "internalType": "address",
          "name": "walletAddress",
          "type": "address"
        },
        {
          "internalType": "string",
          "name": "name",
          "type": "string"
        },
        {
          "internalType": "string",
          "name": "dateOfBirth",
          "type": "string"
        },
        {
          "internalType": "string",
          "name": "gender",
          "type": "string"
        },
        {
          "internalType": "string",
          "name": "bloodGroup",
          "type": "string"
        },
        {
          "internalType": "string",
          "name": "specialization",
          "type": "string"
        },
        {
          "internalType": "string",
          "name": "licenseNumber",
          "type": "string"
        },
        {
          "internalType": "string",
          "name": "email",
          "type": "string"
        },
        {
          "internalType": "string",
          "name": "hospital",
          "type": "string"
        },
        {
          "internalType": "string",
          "name": "password",
          "type": "string"
        }
      ],
      "stateMutability": "view",
      "type": "function"
    },
    {
      "inputs": [
        {
          "internalType": "string",
          "name": "_licenseNumber",
          "type": "string"
        }
      ],
      "name": "getAppointmentSlots",
      "outputs": [
        {
          "components": [
            {
              "internalType": "string",
              "name": "date",
              "type": "string"
            },
            {
              "internalType": "string",
              "name": "time",
              "type": "string"
            },
            {
              "internalType": "bool",
              "name": "isBooked",
              "type": "bool"
            },
            {
              "internalType": "address",
              "name": "bookedBy",
              "type": "address"
            }
          ],
          "internalType": "struct DoctorRegistration.AppointmentSlot[]",
          "name": "",
          "type": "tuple[]"
        }
      ],
      "stateMutability": "view",
      "type": "function"
    },
    {
      "inputs": [
        {
          "internalType": "string",
          "name": "_licenseNumber",
          "type": "string"
        }
      ],
      "name": "getDoctorDetails",
      "outputs": [
        {
          "internalType": "address",
          "name": "walletAddress",
          "type": "address"
        },
        {
          "internalType": "string",
          "name": "name",
          "type": "string"
        },
        {
          "internalType": "string",
          "name": "dateOfBirth",
          "type": "string"
        },
        {
          "internalType": "string",
          "name": "gender",
          "type": "string"
        },
        {
          "internalType": "string",
          "name": "bloodGroup",
          "type": "string"
        },
        {
          "internalType": "string",
          "name": "specialization",
          "type": "string"
        },
        {
          "internalType": "string",
          "name": "email",
          "type": "string"
        },
        {
          "internalType": "string",
          "name": "hospital",
          "type": "string"
        }
      ],
      "stateMutability": "view",
      "type": "function"
    },
    {
      "inputs": [
        {
          "internalType": "string",
          "name": "_patientNumber",
          "type": "string"
        }
      ],
      "name": "getDoctorList",
      "outputs": [
        {
          "components": [
            {
              "internalType": "string",
              "name": "doctorNumber",
              "type": "string"
            },
            {
              "internalType": "string",
              "name": "doctorName",
              "type": "string"
            }
          ],
          "internalType": "struct DoctorRegistration.DoctorList[]",
          "name": "",
          "type": "tuple[]"
        }
      ],
      "stateMutability": "view",
      "type": "function"
    },
    {
      "inputs": [
        {
          "internalType": "string",
          "name": "_specialization",
          "type": "string"
        }
      ],
      "name": "getDoctorsBySpecialization",
      "outputs": [
        {
          "components": [
            {
              "internalType": "address",
              "name": "walletAddress",
              "type": "address"
            },
            {
              "internalType": "string",
              "name": "name",
              "type": "string"
            },
            {
              "internalType": "string",
              "name": "dateOfBirth",
              "type": "string"
            },
            {
              "internalType": "string",
              "name": "gender",
              "type": "string"
            },
            {
              "internalType": "string",
              "name": "bloodGroup",
              "type": "string"
            },
            {
              "internalType": "string",
              "name": "specialization",
              "type": "string"
            },
            {
              "internalType": "string",
              "name": "licenseNumber",
              "type": "string"
            },
            {
              "internalType": "string",
              "name": "email",
              "type": "string"
            },
            {
              "internalType": "string",
              "name": "hospital",
              "type": "string"
            },
            {
              "internalType": "string",
              "name": "password",
              "type": "string"
            }
          ],
          "internalType": "struct DoctorRegistration.Doctor[]",
          "name": "",
          "type": "tuple[]"
        }
      ],
      "stateMutability": "view",
      "type": "function"
    },
    {
      "inputs": [
        {
          "internalType": "string",
          "name": "_doctorNumber",
          "type": "string"
        },
        {
          "internalType": "string",
          "name": "_patientNumber",
          "type": "string"
        },
        {
          "internalType": "string",
          "name": "_doctorName",
          "type": "string"
        }
      ],
      "name": "grantPermission",
      "outputs": [],
      "stateMutability": "nonpayable",
      "type": "function"
    },
    {
      "inputs": [
        {
          "internalType": "string",
          "name": "",
          "type": "string"
        }
      ],
      "name": "isDoctorRegistered",
      "outputs": [
        {
          "internalType": "bool",
          "name": "",
          "type": "bool"
        }
      ],
      "stateMutability": "view",
      "type": "function"
    },
    {
      "inputs": [
        {
          "internalType": "address",
          "name": "",
          "type": "address"
        }
      ],
      "name": "isDoctorRegisteredAddress",
      "outputs": [
        {
          "internalType": "bool",
          "name": "",
          "type": "bool"
        }
      ],
      "stateMutability": "view",
      "type": "function"
    },
    {
      "inputs": [
        {
          "internalType": "string",
          "name": "_doctorNumber",
          "type": "string"
        },
        {
          "internalType": "string",
          "name": "_patientNumber",
          "type": "string"
        }
      ],
      "name": "isPermissionGranted",
      "outputs": [
        {
          "internalType": "bool",
          "name": "",
          "type": "bool"
        }
      ],
      "stateMutability": "view",
      "type": "function"
    },
    {
      "inputs": [
        {
          "internalType": "string",
          "name": "_licenseNumber",
          "type": "string"
        }
      ],
      "name": "isRegisteredDoctor",
      "outputs": [
        {
          "internalType": "bool",
          "name": "",
          "type": "bool"
        }
      ],
      "stateMutability": "view",
      "type": "function"
    },
    {
      "inputs": [
        {
          "internalType": "string",
          "name": "",
          "type": "string"
        },
        {
          "internalType": "string",
          "name": "",
          "type": "string"
        }
      ],
      "name": "patientPermissions",
      "outputs": [
        {
          "internalType": "bool",
          "name": "",
          "type": "bool"
        }
      ],
      "stateMutability": "view",
      "type": "function"
    },
    {
      "inputs": [
        {
          "internalType": "address",
          "name": "_walletAddress",
          "type": "address"
        },
        {
          "internalType": "string",
          "name": "_name",
          "type": "string"
        },
        {
          "internalType": "string",
          "name": "_dateOfBirth",
          "type": "string"
        },
        {
          "internalType": "string",
          "name": "_gender",
          "type": "string"
        },
        {
          "internalType": "string",
          "name": "_bloodGroup",
          "type": "string"
        },
        {
          "internalType": "string",
          "name": "_specialization",
          "type": "string"
        },
        {
          "internalType": "string",
          "name": "_licenseNumber",
          "type": "string"
        },
        {
          "internalType": "string",
          "name": "_email",
          "type": "string"
        },
        {
          "internalType": "string",
          "name": "_hospital",
          "type": "string"
        },
        {
          "internalType": "string",
          "name": "_password",
          "type": "string"
        }
      ],
      "name": "registerDoctor",
      "outputs": [],
      "stateMutability": "nonpayable",
      "type": "function"
    },
    {
      "inputs": [
        {
          "internalType": "address",
          "name": "_walletAddress",
          "type": "address"
        },
        {
          "internalType": "string",
          "name": "_licenseNumber",
          "type": "string"
        }
      ],
      "name": "validateAddress",
      "outputs": [
        {
          "internalType": "bool",
          "name": "",
          "type": "bool"
        }
      ],
      "stateMutability": "view",
      "type": "function"
    },
    {
      "inputs": [
        {
          "internalType": "string",
          "name": "_licenseNumber",
          "type": "string"
        },
        {
          "internalType": "string",
          "name": "_password",
          "type": "string"
        }
      ],
      "name": "validatePassword",
      "outputs": [
        {
          "internalType": "bool",
          "name": "",
          "type": "bool"
        }
      ],
      "stateMutability": "view",
      "type": "function"
    }
  ],
  "bytecode": "0x6080604052348015600f57600080fd5b5061416d8061001f6000396000f3fe608060405234801561001057600080fd5b50600436106101165760003560e01c80639105efd6116100a2578063c241cdd711610071578063c241cdd71461035f578063d120c10c1461038f578063d4953627146103bf578063d9ed6b31146103db578063ea4094b31461040b57610116565b80639105efd6146102b35780639e0b6b76146102e3578063a46bef1514610313578063ab1558d21461034357610116565b80633e769767116100e95780633e769767146101d05780635df670401461020757806377fc3e36146102235780637babdb26146102535780638ff1605b1461028357610116565b806305c35ce51461011b5780630c7b1a771461015457806314e5b987146101845780632edc94e9146101a0575b600080fd5b61013560048036038101906101309190612c00565b61043e565b60405161014b9a99989796959493929190612d09565b60405180910390f35b61016e60048036038101906101699190612c00565b610990565b60405161017b9190612f84565b60405180910390f35b61019e60048036038101906101999190612fa6565b610ba2565b005b6101ba60048036038101906101b59190613083565b610e19565b6040516101c791906130b0565b60405180910390f35b6101ea60048036038101906101e59190612c00565b610ec5565b6040516101fe9897969594939291906130d2565b60405180910390f35b610221600480360381019061021c9190612fa6565b611528565b005b61023d60048036038101906102389190612c00565b611776565b60405161024a9190613190565b60405180910390f35b61026d600480360381019061026891906131ab565b6117ac565b60405161027a9190613190565b60405180910390f35b61029d6004803603810190610298919061324f565b61188f565b6040516102aa9190613190565b60405180910390f35b6102cd60048036038101906102c891906132ab565b611973565b6040516102da9190613190565b60405180910390f35b6102fd60048036038101906102f891906131ab565b611993565b60405161030a9190613190565b60405180910390f35b61032d60048036038101906103289190612c00565b6119ee565b60405161033a9190613190565b60405180910390f35b61035d600480360381019061035891906132d8565b611a22565b005b61037960048036038101906103749190612c00565b611bb9565b6040516103869190613508565b60405180910390f35b6103a960048036038101906103a491906131ab565b612315565b6040516103b69190613190565b60405180910390f35b6103d960048036038101906103d4919061352a565b612367565b005b6103f560048036038101906103f09190612c00565b6126fc565b604051610402919061380b565b60405180910390f35b610425600480360381019061042091906132d8565b61289d565b604051610435949392919061382d565b60405180910390f35b6002818051602081018201805184825260208301602085012081835280955050505050506000915090508060000160009054906101000a900473ffffffffffffffffffffffffffffffffffffffff169080600101805461049d906138af565b80601f01602080910402602001604051908101604052809291908181526020018280546104c9906138af565b80156105165780601f106104eb57610100808354040283529160200191610516565b820191906000526020600020905b8154815290600101906020018083116104f957829003601f168201915b50505050509080600201805461052b906138af565b80601f0160208091040260200160405190810160405280929190818152602001828054610557906138af565b80156105a45780601f10610579576101008083540402835291602001916105a4565b820191906000526020600020905b81548152906001019060200180831161058757829003601f168201915b5050505050908060030180546105b9906138af565b80601f01602080910402602001604051908101604052809291908181526020018280546105e5906138af565b80156106325780601f1061060757610100808354040283529160200191610632565b820191906000526020600020905b81548152906001019060200180831161061557829003601f168201915b505050505090806004018054610647906138af565b80601f0160208091040260200160405190810160405280929190818152602001828054610673906138af565b80156106c05780601f10610695576101008083540402835291602001916106c0565b820191906000526020600020905b8154815290600101906020018083116106a357829003601f168201915b5050505050908060050180546106d5906138af565b80601f0160208091040260200160405190810160405280929190818152602001828054610701906138af565b801561074e5780601f106107235761010080835404028352916020019161074e565b820191906000526020600020905b81548152906001019060200180831161073157829003601f168201915b505050505090806006018054610763906138af565b80601f016020809104026020016040519081016040528092919081815260200182805461078f906138af565b80156107dc5780601f106107b1576101008083540402835291602001916107dc565b820191906000526020600020905b8154815290600101906020018083116107bf57829003601f168201915b5050505050908060070180546107f1906138af565b80601f016020809104026020016040519081016040528092919081815260200182805461081d906138af565b801561086a5780601f1061083f5761010080835404028352916020019161086a565b820191906000526020600020905b81548152906001019060200180831161084d57829003601f168201915b50505050509080600801805461087f906138af565b80601f01602080910402602001604051908101604052809291908181526020018280546108ab906138af565b80156108f85780601f106108cd576101008083540402835291602001916108f8565b820191906000526020600020905b8154815290600101906020018083116108db57829003601f168201915b50505050509080600901805461090d906138af565b80601f0160208091040260200160405190810160405280929190818152602001828054610939906138af565b80156109865780601f1061095b57610100808354040283529160200191610986565b820191906000526020600020905b81548152906001019060200180831161096957829003601f168201915b505050505090508a565b60606005826040516109a2919061391c565b9081526020016040518091039020805480602002602001604051908101604052809291908181526020016000905b82821015610b975783829060005260206000209060030201604051806080016040529081600082018054610a03906138af565b80601f0160208091040260200160405190810160405280929190818152602001828054610a2f906138af565b8015610a7c5780601f10610a5157610100808354040283529160200191610a7c565b820191906000526020600020905b815481529060010190602001808311610a5f57829003601f168201915b50505050508152602001600182018054610a95906138af565b80601f0160208091040260200160405190810160405280929190818152602001828054610ac1906138af565b8015610b0e5780601f10610ae357610100808354040283529160200191610b0e565b820191906000526020600020905b815481529060010190602001808311610af157829003601f168201915b505050505081526020016002820160009054906101000a900460ff161515151581526020016002820160019054906101000a900473ffffffffffffffffffffffffffffffffffffffff1673ffffffffffffffffffffffffffffffffffffffff1673ffffffffffffffffffffffffffffffffffffffff1681525050815260200190600101906109d0565b505050509050919050565b600083604051610bb2919061391c565b908152602001604051809103902060009054906101000a900460ff16610c0d576040517f08c379a0000000000000000000000000000000000000000000000000000000008152600401610c049061397f565b60405180910390fd5b3373ffffffffffffffffffffffffffffffffffffffff16600284604051610c34919061391c565b908152602001604051809103902060000160009054906101000a900473ffffffffffffffffffffffffffffffffffffffff1673ffffffffffffffffffffffffffffffffffffffff1614610cbc576040517f08c379a0000000000000000000000000000000000000000000000000000000008152600401610cb3906139eb565b60405180910390fd5b60006040518060800160405280848152602001838152602001600015158152602001600073ffffffffffffffffffffffffffffffffffffffff168152509050600584604051610d0b919061391c565b90815260200160405180910390208190806001815401808255809150506001900390600052602060002090600302016000909190919091506000820151816000019081610d589190613bb7565b506020820151816001019081610d6e9190613bb7565b5060408201518160020160006101000a81548160ff02191690831515021790555060608201518160020160016101000a81548173ffffffffffffffffffffffffffffffffffffffff021916908373ffffffffffffffffffffffffffffffffffffffff16021790555050507f16c0983115e54d4199d71f6eb741f171ab43944666030ed178c6f07c869e7e1e848484604051610e0b93929190613c89565b60405180910390a150505050565b60068181548110610e2957600080fd5b906000526020600020016000915090508054610e44906138af565b80601f0160208091040260200160405190810160405280929190818152602001828054610e70906138af565b8015610ebd5780601f10610e9257610100808354040283529160200191610ebd565b820191906000526020600020905b815481529060010190602001808311610ea057829003601f168201915b505050505081565b60006060806060806060806060600089604051610ee2919061391c565b908152602001604051809103902060009054906101000a900460ff16610f3d576040517f08c379a0000000000000000000000000000000000000000000000000000000008152600401610f349061397f565b60405180910390fd5b600060028a604051610f4f919061391c565b9081526020016040518091039020604051806101400160405290816000820160009054906101000a900473ffffffffffffffffffffffffffffffffffffffff1673ffffffffffffffffffffffffffffffffffffffff1673ffffffffffffffffffffffffffffffffffffffff168152602001600182018054610fcf906138af565b80601f0160208091040260200160405190810160405280929190818152602001828054610ffb906138af565b80156110485780601f1061101d57610100808354040283529160200191611048565b820191906000526020600020905b81548152906001019060200180831161102b57829003601f168201915b50505050508152602001600282018054611061906138af565b80601f016020809104026020016040519081016040528092919081815260200182805461108d906138af565b80156110da5780601f106110af576101008083540402835291602001916110da565b820191906000526020600020905b8154815290600101906020018083116110bd57829003601f168201915b505050505081526020016003820180546110f3906138af565b80601f016020809104026020016040519081016040528092919081815260200182805461111f906138af565b801561116c5780601f106111415761010080835404028352916020019161116c565b820191906000526020600020905b81548152906001019060200180831161114f57829003601f168201915b50505050508152602001600482018054611185906138af565b80601f01602080910402602001604051908101604052809291908181526020018280546111b1906138af565b80156111fe5780601f106111d3576101008083540402835291602001916111fe565b820191906000526020600020905b8154815290600101906020018083116111e157829003601f168201915b50505050508152602001600582018054611217906138af565b80601f0160208091040260200160405190810160405280929190818152602001828054611243906138af565b80156112905780601f1061126557610100808354040283529160200191611290565b820191906000526020600020905b81548152906001019060200180831161127357829003601f168201915b505050505081526020016006820180546112a9906138af565b80601f01602080910402602001604051908101604052809291908181526020018280546112d5906138af565b80156113225780601f106112f757610100808354040283529160200191611322565b820191906000526020600020905b81548152906001019060200180831161130557829003601f168201915b5050505050815260200160078201805461133b906138af565b80601f0160208091040260200160405190810160405280929190818152602001828054611367906138af565b80156113b45780601f10611389576101008083540402835291602001916113b4565b820191906000526020600020905b81548152906001019060200180831161139757829003601f168201915b505050505081526020016008820180546113cd906138af565b80601f01602080910402602001604051908101604052809291908181526020018280546113f9906138af565b80156114465780601f1061141b57610100808354040283529160200191611446565b820191906000526020600020905b81548152906001019060200180831161142957829003601f168201915b5050505050815260200160098201805461145f906138af565b80601f016020809104026020016040519081016040528092919081815260200182805461148b906138af565b80156114d85780601f106114ad576101008083540402835291602001916114d8565b820191906000526020600020905b8154815290600101906020018083116114bb57829003601f168201915b5050505050815250509050806000015181602001518260400151836060015184608001518560a001518660e001518761010001519850985098509850985098509850985050919395975091939597565b600483604051611538919061391c565b908152602001604051809103902082604051611554919061391c565b908152602001604051809103902060009054906101000a900460ff16156115b0576040517f08c379a00000000000000000000000000000000000000000000000000000000081526004016115a790613d47565b60405180910390fd5b6000805b6003846040516115c4919061391c565b90815260200160405180910390208054905081101561168657846040516020016115ee919061391c565b60405160208183030381529060405280519060200120600385604051611614919061391c565b9081526020016040518091039020828154811061163457611633613d67565b5b90600052602060002090600202016000016040516020016116559190613e19565b60405160208183030381529060405280519060200120036116795760019150611686565b80806001019150506115b4565b508061171d57600060405180604001604052808681526020018481525090506003846040516116b5919061391c565b908152602001604051809103902081908060018154018082558091505060019003906000526020600020906002020160009091909190915060008201518160000190816117029190613bb7565b5060208201518160010190816117189190613bb7565b505050505b600160048560405161172f919061391c565b90815260200160405180910390208460405161174b919061391c565b908152602001604051809103902060006101000a81548160ff02191690831515021790555050505050565b6000818051602081018201805184825260208301602085012081835280955050505050506000915054906101000a900460ff1681565b600080836040516117bd919061391c565b908152602001604051809103902060009054906101000a900460ff16611818576040517f08c379a000000000000000000000000000000000000000000000000000000000815260040161180f9061397f565b60405180910390fd5b600283604051611828919061391c565b90815260200160405180910390206009016040516020016118499190613e19565b6040516020818303038152906040528051906020012082604051602001611870919061391c565b6040516020818303038152906040528051906020012014905092915050565b600080826040516118a0919061391c565b908152602001604051809103902060009054906101000a900460ff166118fb576040517f08c379a00000000000000000000000000000000000000000000000000000000081526004016118f29061397f565b60405180910390fd5b60028260405161190b919061391c565b908152602001604051809103902060000160009054906101000a900473ffffffffffffffffffffffffffffffffffffffff1673ffffffffffffffffffffffffffffffffffffffff168373ffffffffffffffffffffffffffffffffffffffff1614905092915050565b60016020528060005260406000206000915054906101000a900460ff1681565b600482805160208101820180518482526020830160208501208183528095505050505050818051602081018201805184825260208301602085012081835280955050505050506000915091509054906101000a900460ff1681565b600080826040516119ff919061391c565b908152602001604051809103902060009054906101000a900460ff169050919050565b600582604051611a32919061391c565b9081526020016040518091039020805490508110611a85576040517f08c379a0000000000000000000000000000000000000000000000000000000008152600401611a7c90613e7c565b60405180910390fd5b6000600583604051611a97919061391c565b90815260200160405180910390208281548110611ab757611ab6613d67565b5b906000526020600020906003020190508060020160009054906101000a900460ff1615611b19576040517f08c379a0000000000000000000000000000000000000000000000000000000008152600401611b1090613ee8565b60405180910390fd5b60018160020160006101000a81548160ff021916908315150217905550338160020160016101000a81548173ffffffffffffffffffffffffffffffffffffffff021916908373ffffffffffffffffffffffffffffffffffffffff1602179055507fb65161160b054311eef56f8378fe6074984e29650a3d6c5d5d41f238d14384f2838333604051611bac93929190613f17565b60405180910390a1505050565b60606000805b600680549050811015611c48578380519060200120600260068381548110611bea57611be9613d67565b5b90600052602060002001604051611c019190613e19565b9081526020016040518091039020600501604051611c1f9190613ff8565b604051809103902003611c3b578180611c379061403e565b9250505b8080600101915050611bbf565b5060008167ffffffffffffffff811115611c6557611c64612ad5565b5b604051908082528060200260200182016040528015611c9e57816020015b611c8b612a3d565b815260200190600190039081611c835790505b5090506000805b600680549050811015612309578580519060200120600260068381548110611cd057611ccf613d67565b5b90600052602060002001604051611ce79190613e19565b9081526020016040518091039020600501604051611d059190613ff8565b6040518091039020036122fc57600260068281548110611d2857611d27613d67565b5b90600052602060002001604051611d3f9190613e19565b9081526020016040518091039020604051806101400160405290816000820160009054906101000a900473ffffffffffffffffffffffffffffffffffffffff1673ffffffffffffffffffffffffffffffffffffffff1673ffffffffffffffffffffffffffffffffffffffff168152602001600182018054611dbf906138af565b80601f0160208091040260200160405190810160405280929190818152602001828054611deb906138af565b8015611e385780601f10611e0d57610100808354040283529160200191611e38565b820191906000526020600020905b815481529060010190602001808311611e1b57829003601f168201915b50505050508152602001600282018054611e51906138af565b80601f0160208091040260200160405190810160405280929190818152602001828054611e7d906138af565b8015611eca5780601f10611e9f57610100808354040283529160200191611eca565b820191906000526020600020905b815481529060010190602001808311611ead57829003601f168201915b50505050508152602001600382018054611ee3906138af565b80601f0160208091040260200160405190810160405280929190818152602001828054611f0f906138af565b8015611f5c5780601f10611f3157610100808354040283529160200191611f5c565b820191906000526020600020905b815481529060010190602001808311611f3f57829003601f168201915b50505050508152602001600482018054611f75906138af565b80601f0160208091040260200160405190810160405280929190818152602001828054611fa1906138af565b8015611fee5780601f10611fc357610100808354040283529160200191611fee565b820191906000526020600020905b815481529060010190602001808311611fd157829003601f168201915b50505050508152602001600582018054612007906138af565b80601f0160208091040260200160405190810160405280929190818152602001828054612033906138af565b80156120805780601f1061205557610100808354040283529160200191612080565b820191906000526020600020905b81548152906001019060200180831161206357829003601f168201915b50505050508152602001600682018054612099906138af565b80601f01602080910402602001604051908101604052809291908181526020018280546120c5906138af565b80156121125780601f106120e757610100808354040283529160200191612112565b820191906000526020600020905b8154815290600101906020018083116120f557829003601f168201915b5050505050815260200160078201805461212b906138af565b80601f0160208091040260200160405190810160405280929190818152602001828054612157906138af565b80156121a45780601f10612179576101008083540402835291602001916121a4565b820191906000526020600020905b81548152906001019060200180831161218757829003601f168201915b505050505081526020016008820180546121bd906138af565b80601f01602080910402602001604051908101604052809291908181526020018280546121e9906138af565b80156122365780601f1061220b57610100808354040283529160200191612236565b820191906000526020600020905b81548152906001019060200180831161221957829003601f168201915b5050505050815260200160098201805461224f906138af565b80601f016020809104026020016040519081016040528092919081815260200182805461227b906138af565b80156122c85780601f1061229d576101008083540402835291602001916122c8565b820191906000526020600020905b8154815290600101906020018083116122ab57829003601f168201915b5050505050815250508383806122dd9061403e565b9450815181106122f0576122ef613d67565b5b60200260200101819052505b8080600101915050611ca5565b50819350505050919050565b6000600483604051612327919061391c565b908152602001604051809103902082604051612343919061391c565b908152602001604051809103902060009054906101000a900460ff16905092915050565b600084604051612377919061391c565b908152602001604051809103902060009054906101000a900460ff16156123d3576040517f08c379a00000000000000000000000000000000000000000000000000000000081526004016123ca906140d2565b60405180910390fd5b600160008b73ffffffffffffffffffffffffffffffffffffffff1673ffffffffffffffffffffffffffffffffffffffff16815260200190815260200160002060009054906101000a900460ff1615612460576040517f08c379a0000000000000000000000000000000000000000000000000000000008152600401612457906140d2565b60405180910390fd5b60006040518061014001604052808c73ffffffffffffffffffffffffffffffffffffffff1681526020018b81526020018a8152602001898152602001888152602001878152602001868152602001858152602001848152602001838152509050806002866040516124d1919061391c565b908152602001604051809103902060008201518160000160006101000a81548173ffffffffffffffffffffffffffffffffffffffff021916908373ffffffffffffffffffffffffffffffffffffffff160217905550602082015181600101908161253b9190613bb7565b5060408201518160020190816125519190613bb7565b5060608201518160030190816125679190613bb7565b50608082015181600401908161257d9190613bb7565b5060a08201518160050190816125939190613bb7565b5060c08201518160060190816125a99190613bb7565b5060e08201518160070190816125bf9190613bb7565b506101008201518160080190816125d69190613bb7565b506101208201518160090190816125ed9190613bb7565b509050506001600086604051612603919061391c565b908152602001604051809103902060006101000a81548160ff02191690831515021790555060018060008d73ffffffffffffffffffffffffffffffffffffffff1673ffffffffffffffffffffffffffffffffffffffff16815260200190815260200160002060006101000a81548160ff0219169083151502179055506006859080600181540180825580915050600190039060005260206000200160009091909190915090816126b39190613bb7565b507f8d3f9c8a09dcd94bc9c847110caac40824996b777a45809b38b82b9aa3f71ec8858b8d6040516126e7939291906140f2565b60405180910390a15050505050505050505050565b606060038260405161270e919061391c565b9081526020016040518091039020805480602002602001604051908101604052809291908181526020016000905b82821015612892578382906000526020600020906002020160405180604001604052908160008201805461276f906138af565b80601f016020809104026020016040519081016040528092919081815260200182805461279b906138af565b80156127e85780601f106127bd576101008083540402835291602001916127e8565b820191906000526020600020905b8154815290600101906020018083116127cb57829003601f168201915b50505050508152602001600182018054612801906138af565b80601f016020809104026020016040519081016040528092919081815260200182805461282d906138af565b801561287a5780601f1061284f5761010080835404028352916020019161287a565b820191906000526020600020905b81548152906001019060200180831161285d57829003601f168201915b5050505050815250508152602001906001019061273c565b505050509050919050565b60058280516020810182018051848252602083016020850120818352809550505050505081815481106128cf57600080fd5b9060005260206000209060030201600091509150508060000180546128f3906138af565b80601f016020809104026020016040519081016040528092919081815260200182805461291f906138af565b801561296c5780601f106129415761010080835404028352916020019161296c565b820191906000526020600020905b81548152906001019060200180831161294f57829003601f168201915b505050505090806001018054612981906138af565b80601f01602080910402602001604051908101604052809291908181526020018280546129ad906138af565b80156129fa5780601f106129cf576101008083540402835291602001916129fa565b820191906000526020600020905b8154815290600101906020018083116129dd57829003601f168201915b5050505050908060020160009054906101000a900460ff16908060020160019054906101000a900473ffffffffffffffffffffffffffffffffffffffff16905084565b604051806101400160405280600073ffffffffffffffffffffffffffffffffffffffff1681526020016060815260200160608152602001606081526020016060815260200160608152602001606081526020016060815260200160608152602001606081525090565b6000604051905090565b600080fd5b600080fd5b600080fd5b600080fd5b6000601f19601f8301169050919050565b7f4e487b7100000000000000000000000000000000000000000000000000000000600052604160045260246000fd5b612b0d82612ac4565b810181811067ffffffffffffffff82111715612b2c57612b2b612ad5565b5b80604052505050565b6000612b3f612aa6565b9050612b4b8282612b04565b919050565b600067ffffffffffffffff821115612b6b57612b6a612ad5565b5b612b7482612ac4565b9050602081019050919050565b82818337600083830152505050565b6000612ba3612b9e84612b50565b612b35565b905082815260208101848484011115612bbf57612bbe612abf565b5b612bca848285612b81565b509392505050565b600082601f830112612be757612be6612aba565b5b8135612bf7848260208601612b90565b91505092915050565b600060208284031215612c1657612c15612ab0565b5b600082013567ffffffffffffffff811115612c3457612c33612ab5565b5b612c4084828501612bd2565b91505092915050565b600073ffffffffffffffffffffffffffffffffffffffff82169050919050565b6000612c7482612c49565b9050919050565b612c8481612c69565b82525050565b600081519050919050565b600082825260208201905092915050565b60005b83811015612cc4578082015181840152602081019050612ca9565b60008484015250505050565b6000612cdb82612c8a565b612ce58185612c95565b9350612cf5818560208601612ca6565b612cfe81612ac4565b840191505092915050565b600061014082019050612d1f600083018d612c7b565b8181036020830152612d31818c612cd0565b90508181036040830152612d45818b612cd0565b90508181036060830152612d59818a612cd0565b90508181036080830152612d6d8189612cd0565b905081810360a0830152612d818188612cd0565b905081810360c0830152612d958187612cd0565b905081810360e0830152612da98186612cd0565b9050818103610100830152612dbe8185612cd0565b9050818103610120830152612dd38184612cd0565b90509b9a5050505050505050505050565b600081519050919050565b600082825260208201905092915050565b6000819050602082019050919050565b600082825260208201905092915050565b6000612e2c82612c8a565b612e368185612e10565b9350612e46818560208601612ca6565b612e4f81612ac4565b840191505092915050565b60008115159050919050565b612e6f81612e5a565b82525050565b612e7e81612c69565b82525050565b60006080830160008301518482036000860152612ea18282612e21565b91505060208301518482036020860152612ebb8282612e21565b9150506040830151612ed06040860182612e66565b506060830151612ee36060860182612e75565b508091505092915050565b6000612efa8383612e84565b905092915050565b6000602082019050919050565b6000612f1a82612de4565b612f248185612def565b935083602082028501612f3685612e00565b8060005b85811015612f725784840389528151612f538582612eee565b9450612f5e83612f02565b925060208a01995050600181019050612f3a565b50829750879550505050505092915050565b60006020820190508181036000830152612f9e8184612f0f565b905092915050565b600080600060608486031215612fbf57612fbe612ab0565b5b600084013567ffffffffffffffff811115612fdd57612fdc612ab5565b5b612fe986828701612bd2565b935050602084013567ffffffffffffffff81111561300a57613009612ab5565b5b61301686828701612bd2565b925050604084013567ffffffffffffffff81111561303757613036612ab5565b5b61304386828701612bd2565b9150509250925092565b6000819050919050565b6130608161304d565b811461306b57600080fd5b50565b60008135905061307d81613057565b92915050565b60006020828403121561309957613098612ab0565b5b60006130a78482850161306e565b91505092915050565b600060208201905081810360008301526130ca8184612cd0565b905092915050565b6000610100820190506130e8600083018b612c7b565b81810360208301526130fa818a612cd0565b9050818103604083015261310e8189612cd0565b905081810360608301526131228188612cd0565b905081810360808301526131368187612cd0565b905081810360a083015261314a8186612cd0565b905081810360c083015261315e8185612cd0565b905081810360e08301526131728184612cd0565b90509998505050505050505050565b61318a81612e5a565b82525050565b60006020820190506131a56000830184613181565b92915050565b600080604083850312156131c2576131c1612ab0565b5b600083013567ffffffffffffffff8111156131e0576131df612ab5565b5b6131ec85828601612bd2565b925050602083013567ffffffffffffffff81111561320d5761320c612ab5565b5b61321985828601612bd2565b9150509250929050565b61322c81612c69565b811461323757600080fd5b50565b60008135905061324981613223565b92915050565b6000806040838503121561326657613265612ab0565b5b60006132748582860161323a565b925050602083013567ffffffffffffffff81111561329557613294612ab5565b5b6132a185828601612bd2565b9150509250929050565b6000602082840312156132c1576132c0612ab0565b5b60006132cf8482850161323a565b91505092915050565b600080604083850312156132ef576132ee612ab0565b5b600083013567ffffffffffffffff81111561330d5761330c612ab5565b5b61331985828601612bd2565b925050602061332a8582860161306e565b9150509250929050565b600081519050919050565b600082825260208201905092915050565b6000819050602082019050919050565b6000610140830160008301516133796000860182612e75565b50602083015184820360208601526133918282612e21565b915050604083015184820360408601526133ab8282612e21565b915050606083015184820360608601526133c58282612e21565b915050608083015184820360808601526133df8282612e21565b91505060a083015184820360a08601526133f98282612e21565b91505060c083015184820360c08601526134138282612e21565b91505060e083015184820360e086015261342d8282612e21565b9150506101008301518482036101008601526134498282612e21565b9150506101208301518482036101208601526134658282612e21565b9150508091505092915050565b600061347e8383613360565b905092915050565b6000602082019050919050565b600061349e82613334565b6134a8818561333f565b9350836020820285016134ba85613350565b8060005b858110156134f657848403895281516134d78582613472565b94506134e283613486565b925060208a019950506001810190506134be565b50829750879550505050505092915050565b600060208201905081810360008301526135228184613493565b905092915050565b6000806000806000806000806000806101408b8d03121561354e5761354d612ab0565b5b600061355c8d828e0161323a565b9a505060208b013567ffffffffffffffff81111561357d5761357c612ab5565b5b6135898d828e01612bd2565b99505060408b013567ffffffffffffffff8111156135aa576135a9612ab5565b5b6135b68d828e01612bd2565b98505060608b013567ffffffffffffffff8111156135d7576135d6612ab5565b5b6135e38d828e01612bd2565b97505060808b013567ffffffffffffffff81111561360457613603612ab5565b5b6136108d828e01612bd2565b96505060a08b013567ffffffffffffffff81111561363157613630612ab5565b5b61363d8d828e01612bd2565b95505060c08b013567ffffffffffffffff81111561365e5761365d612ab5565b5b61366a8d828e01612bd2565b94505060e08b013567ffffffffffffffff81111561368b5761368a612ab5565b5b6136978d828e01612bd2565b9350506101008b013567ffffffffffffffff8111156136b9576136b8612ab5565b5b6136c58d828e01612bd2565b9250506101208b013567ffffffffffffffff8111156136e7576136e6612ab5565b5b6136f38d828e01612bd2565b9150509295989b9194979a5092959850565b600081519050919050565b600082825260208201905092915050565b6000819050602082019050919050565b6000604083016000830151848203600086015261374e8282612e21565b915050602083015184820360208601526137688282612e21565b9150508091505092915050565b60006137818383613731565b905092915050565b6000602082019050919050565b60006137a182613705565b6137ab8185613710565b9350836020820285016137bd85613721565b8060005b858110156137f957848403895281516137da8582613775565b94506137e583613789565b925060208a019950506001810190506137c1565b50829750879550505050505092915050565b600060208201905081810360008301526138258184613796565b905092915050565b600060808201905081810360008301526138478187612cd0565b9050818103602083015261385b8186612cd0565b905061386a6040830185613181565b6138776060830184612c7b565b95945050505050565b7f4e487b7100000000000000000000000000000000000000000000000000000000600052602260045260246000fd5b600060028204905060018216806138c757607f821691505b6020821081036138da576138d9613880565b5b50919050565b600081905092915050565b60006138f682612c8a565b61390081856138e0565b9350613910818560208601612ca6565b80840191505092915050565b600061392882846138eb565b915081905092915050565b7f446f63746f72206e6f7420726567697374657265640000000000000000000000600082015250565b6000613969601583612c95565b915061397482613933565b602082019050919050565b600060208201905081810360008301526139988161395c565b9050919050565b7f4f6e6c7920646f63746f722063616e2061646420736c6f747300000000000000600082015250565b60006139d5601983612c95565b91506139e08261399f565b602082019050919050565b60006020820190508181036000830152613a04816139c8565b9050919050565b60008190508160005260206000209050919050565b60006020601f8301049050919050565b600082821b905092915050565b600060088302613a6d7fffffffffffffffffffffffffffffffffffffffffffffffffffffffffffffffff82613a30565b613a778683613a30565b95508019841693508086168417925050509392505050565b6000819050919050565b6000613ab4613aaf613aaa8461304d565b613a8f565b61304d565b9050919050565b6000819050919050565b613ace83613a99565b613ae2613ada82613abb565b848454613a3d565b825550505050565b600090565b613af7613aea565b613b02818484613ac5565b505050565b5b81811015613b2657613b1b600082613aef565b600181019050613b08565b5050565b601f821115613b6b57613b3c81613a0b565b613b4584613a20565b81016020851015613b54578190505b613b68613b6085613a20565b830182613b07565b50505b505050565b600082821c905092915050565b6000613b8e60001984600802613b70565b1980831691505092915050565b6000613ba78383613b7d565b9150826002028217905092915050565b613bc082612c8a565b67ffffffffffffffff811115613bd957613bd8612ad5565b5b613be382546138af565b613bee828285613b2a565b600060209050601f831160018114613c215760008415613c0f578287015190505b613c198582613b9b565b865550613c81565b601f198416613c2f86613a0b565b60005b82811015613c5757848901518255600182019150602085019450602081019050613c32565b86831015613c745784890151613c70601f891682613b7d565b8355505b6001600288020188555050505b505050505050565b60006060820190508181036000830152613ca38186612cd0565b90508181036020830152613cb78185612cd0565b90508181036040830152613ccb8184612cd0565b9050949350505050565b7f41636365737320616c7265616479206772616e74656420746f2070617469656e60008201527f7421000000000000000000000000000000000000000000000000000000000000602082015250565b6000613d31602283612c95565b9150613d3c82613cd5565b604082019050919050565b60006020820190508181036000830152613d6081613d24565b9050919050565b7f4e487b7100000000000000000000000000000000000000000000000000000000600052603260045260246000fd5b60008154613da3816138af565b613dad81866138e0565b94506001821660008114613dc85760018114613ddd57613e10565b60ff1983168652811515820286019350613e10565b613de685613a0b565b60005b83811015613e0857815481890152600182019150602081019050613de9565b838801955050505b50505092915050565b6000613e258284613d96565b915081905092915050565b7f496e76616c696420736c6f7420696e6465780000000000000000000000000000600082015250565b6000613e66601283612c95565b9150613e7182613e30565b602082019050919050565b60006020820190508181036000830152613e9581613e59565b9050919050565b7f536c6f7420616c726561647920626f6f6b656400000000000000000000000000600082015250565b6000613ed2601383612c95565b9150613edd82613e9c565b602082019050919050565b60006020820190508181036000830152613f0181613ec5565b9050919050565b613f118161304d565b82525050565b60006060820190508181036000830152613f318186612cd0565b9050613f406020830185613f08565b613f4d6040830184612c7b565b949350505050565b600081905092915050565b60008190508160005260206000209050919050565b60008154613f82816138af565b613f8c8186613f55565b94506001821660008114613fa75760018114613fbc57613fef565b60ff1983168652811515820286019350613fef565b613fc585613f60565b60005b83811015613fe757815481890152600182019150602081019050613fc8565b838801955050505b50505092915050565b60006140048284613f75565b915081905092915050565b7f4e487b7100000000000000000000000000000000000000000000000000000000600052601160045260246000fd5b60006140498261304d565b91507fffffffffffffffffffffffffffffffffffffffffffffffffffffffffffffffff820361407b5761407a61400f565b5b600182019050919050565b7f446f63746f7220616c7265616479207265676973746572656400000000000000600082015250565b60006140bc601983612c95565b91506140c782614086565b602082019050919050565b600060208201905081810360008301526140eb816140af565b9050919050565b6000606082019050818103600083015261410c8186612cd0565b905081810360208301526141208185612cd0565b905061412f6040830184612c7b565b94935050505056fea264697066735822122069496e01dfd256e00baf25a013619e1fd4be1129221e639ed62c72ee46e5813964736f6c634300081c0033",
  "linkReferences": {},
  "deployedLinkReferences": {}
}